{
  "contractName": "Arbitrage",
  "abi": [
    {
      "inputs": [
        {
          "internalType": "address",
          "name": "_factory",
          "type": "address"
        },
        {
          "internalType": "address",
          "name": "_sushiRouter",
          "type": "address"
        }
      ],
      "stateMutability": "nonpayable",
      "type": "constructor"
    },
    {
      "anonymous": false,
      "inputs": [
        {
          "indexed": false,
          "internalType": "uint256",
          "name": "first",
          "type": "uint256"
        },
        {
          "indexed": false,
          "internalType": "uint256",
          "name": "second",
          "type": "uint256"
        }
      ],
      "name": "amountInInfo",
      "type": "event"
    },
    {
      "anonymous": false,
      "inputs": [
        {
          "indexed": false,
          "internalType": "address",
          "name": "from",
          "type": "address"
        },
        {
          "indexed": false,
          "internalType": "address",
          "name": "to",
          "type": "address"
        },
        {
          "indexed": false,
          "internalType": "uint256",
          "name": "tokenAmount",
          "type": "uint256"
        }
      ],
      "name": "pathSwapInfo",
      "type": "event"
    },
    {
      "anonymous": false,
      "inputs": [
        {
          "indexed": false,
          "internalType": "address",
          "name": "addr",
          "type": "address"
        },
        {
          "indexed": false,
          "internalType": "uint256",
          "name": "payback",
          "type": "uint256"
        }
      ],
      "name": "testObject",
      "type": "event"
    },
    {
      "anonymous": false,
      "inputs": [
        {
          "indexed": false,
          "internalType": "address",
          "name": "from",
          "type": "address"
        },
        {
          "indexed": false,
          "internalType": "address",
          "name": "to",
          "type": "address"
        },
        {
          "indexed": false,
          "internalType": "uint256",
          "name": "tokenAmount",
          "type": "uint256"
        }
      ],
      "name": "tokenSwapInfo",
      "type": "event"
    },
    {
      "inputs": [],
      "name": "factory",
      "outputs": [
        {
          "internalType": "address",
          "name": "",
          "type": "address"
        }
      ],
      "stateMutability": "view",
      "type": "function",
      "constant": true
    },
    {
      "inputs": [],
      "name": "sushiRouter",
      "outputs": [
        {
          "internalType": "contract IUniswapV2Router02",
          "name": "",
          "type": "address"
        }
      ],
      "stateMutability": "view",
      "type": "function",
      "constant": true
    },
    {
      "inputs": [
        {
          "internalType": "address",
          "name": "token0",
          "type": "address"
        },
        {
          "internalType": "address",
          "name": "token1",
          "type": "address"
        },
        {
          "internalType": "uint256",
          "name": "amount0",
          "type": "uint256"
        },
        {
          "internalType": "uint256",
          "name": "amount1",
          "type": "uint256"
        }
      ],
      "name": "startArbitrage",
      "outputs": [],
      "stateMutability": "nonpayable",
      "type": "function"
    },
    {
      "inputs": [
        {
          "internalType": "address",
          "name": "_sender",
          "type": "address"
        },
        {
          "internalType": "uint256",
          "name": "_amount0",
          "type": "uint256"
        },
        {
          "internalType": "uint256",
          "name": "_amount1",
          "type": "uint256"
        },
        {
          "internalType": "bytes",
          "name": "_data",
          "type": "bytes"
        }
      ],
      "name": "uniswapV2Call",
      "outputs": [],
      "stateMutability": "nonpayable",
      "type": "function"
    }
  ],
  "bytecode": "0x608060405242620d2f000160015534801561001957600080fd5b5060405161120a38038061120a8339818101604052604081101561003c57600080fd5b508051602090910151600080546001600160a01b039384166001600160a01b03199182161790915560028054939092169216919091179055611187806100836000396000f3fe608060405234801561001057600080fd5b506004361061004c5760003560e01c806310d1e85c146100515780636d13582c146100df57806376e9d06614610103578063c45a01551461013f575b600080fd5b6100dd6004803603608081101561006757600080fd5b6001600160a01b03823516916020810135916040820135919081019060808101606082013564010000000081111561009e57600080fd5b8201836020820111156100b057600080fd5b803590602001918460018302840111640100000000831117156100d257600080fd5b509092509050610147565b005b6100e7610928565b604080516001600160a01b039092168252519081900360200190f35b6100dd6004803603608081101561011957600080fd5b506001600160a01b03813581169160208101359091169060408101359060600135610937565b6100e7610b18565b6040805160028082526060808301845292602083019080368337019050509050600085156101755785610177565b845b90506000336001600160a01b0316630dfe16816040518163ffffffff1660e01b815260040160206040518083038186803b1580156101b457600080fd5b505afa1580156101c8573d6000803e3d6000fd5b505050506040513d60208110156101de57600080fd5b50516040805163d21220a760e01b81529051919250600091339163d21220a7916004808301926020929190829003018186803b15801561021d57600080fd5b505afa158015610231573d6000803e3d6000fd5b505050506040513d602081101561024757600080fd5b5051600054909150610263906001600160a01b03168383610b27565b6001600160a01b0316336001600160a01b0316146102b7576040805162461bcd60e51b815260206004820152600c60248201526b155b985d5d1a1bdc9a5e995960a21b604482015290519081900360640190fd5b8715806102c2575086155b6102cb57600080fd5b87156102d757816102d9565b805b846000815181106102e657fe5b6001600160a01b0390921660209283029190910190910152871561030a578061030c565b815b8460018151811061031957fe5b6001600160a01b03909216602092830291909101909101526000881561033f5782610341565b815b9050600089156103515782610353565b835b6002546040805163095ea7b360e01b81526001600160a01b0392831660048201526024810189905290519293509084169163095ea7b3916044808201926020929091908290030181600087803b1580156103ac57600080fd5b505af11580156103c0573d6000803e3d6000fd5b505050506040513d60208110156103d657600080fd5b505060025460408051636eb1769f60e11b81523060048201526001600160a01b039283166024820152905160009285169163dd62ed3e916044808301926020929190829003018186803b15801561042c57600080fd5b505afa158015610440573d6000803e3d6000fd5b505050506040513d602081101561045657600080fd5b50516040805160028082526060808301845293945090916020830190803683370190505090508760018151811061048957fe5b60200260200101518160008151811061049e57fe5b60200260200101906001600160a01b031690816001600160a01b031681525050876000815181106104cb57fe5b6020026020010151816001815181106104e057fe5b6001600160a01b03928316602091820292909201015260008054909161050891168984610be7565b60008151811061051457fe5b602002602001015190506000600260009054906101000a90046001600160a01b03166001600160a01b03166338ed17398a848d306001546040518663ffffffff1660e01b81526004018086815260200185815260200180602001846001600160a01b03166001600160a01b03168152602001838152602001828103825285818151815260200191508051906020019060200280838360005b838110156105c45781810151838201526020016105ac565b505050509050019650505050505050600060405180830381600087803b1580156105ed57600080fd5b505af1158015610601573d6000803e3d6000fd5b505050506040513d6000823e601f3d908101601f19168201604052602081101561062a57600080fd5b810190808051604051939291908464010000000082111561064a57600080fd5b90830190602082018581111561065f57600080fd5b825186602082028301116401000000008211171561067c57600080fd5b82525081516020918201928201910280838360005b838110156106a9578181015183820152602001610691565b505050509050016040525050506001815181106106c257fe5b6020908102919091018101516040805163a9059cbb60e01b81523360048201526024810186905290519193506001600160a01b0388169263a9059cbb926044808401938290030181600087803b15801561071b57600080fd5b505af115801561072f573d6000803e3d6000fd5b505050506040513d602081101561074557600080fd5b50506040805163a9059cbb60e01b8152326004820152838303602482015290516001600160a01b0387169163a9059cbb9160448083019260209291908290030181600087803b15801561079757600080fd5b505af11580156107ab573d6000803e3d6000fd5b505050506040513d60208110156107c157600080fd5b5050604080516001600160a01b038089168252871660208201528082018b905290517f3766f55a11881ba622830519fe0872ba2445e0adedf6068999c235042913cf019181900360600190a17f825854be9f09c3e95bfc56886e5f784fedc4b5fb7d5a57f2a1add6c2621dbf748a60008151811061083b57fe5b60200260200101518b60018151811061085057fe5b60200260200101518b60405180846001600160a01b03166001600160a01b03168152602001836001600160a01b03166001600160a01b03168152602001828152602001935050505060405180910390a1604080518381526020810186905281517f31a76737cf95d5a1fdc496d480ab2dfe3b7f84ca046e4c4e6bad329c60ae46c3929181900390910190a160408051308152838303602082015281517f94efe9e3a607a4e30f0648e6ce6914ff92832ee52251536f2eda54df8a7d320b929181900390910190a1505050505050505050505050505050565b6002546001600160a01b031681565b600080546040805163e6a4390560e01b81526001600160a01b03888116600483015287811660248301529151919092169163e6a43905916044808301926020929190829003018186803b15801561098d57600080fd5b505afa1580156109a1573d6000803e3d6000fd5b505050506040513d60208110156109b757600080fd5b505190506001600160a01b038116610a16576040805162461bcd60e51b815260206004820152601860248201527f5468697320706f6f6c20646f6573206e6f742065786973740000000000000000604482015290519081900360640190fd5b60408051808201825260098152686e6f7420656d70747960b81b60208201908152915163022c0d9f60e01b8152600481018681526024820186905230604483018190526080606484019081528451608485015284516001600160a01b0388169663022c0d9f968b968b9691949193919260a49091019180838360005b83811015610aaa578181015183820152602001610a92565b50505050905090810190601f168015610ad75780820380516001836020036101000a031916815260200191505b5095505050505050600060405180830381600087803b158015610af957600080fd5b505af1158015610b0d573d6000803e3d6000fd5b505050505050505050565b6000546001600160a01b031681565b6000806000610b368585610d34565b604080516bffffffffffffffffffffffff19606094851b811660208084019190915293851b81166034830152825160288184030181526048830184528051908501206001600160f81b031960688401529a90941b9093166069840152607d8301989098527f96e8ac4277198ff8b6f785478aa9a39f403cb768dd02cbee326c3e7da348845f609d808401919091528851808403909101815260bd909201909752805196019590952095945050505050565b6060600282511015610c40576040805162461bcd60e51b815260206004820152601e60248201527f556e697377617056324c6962726172793a20494e56414c49445f504154480000604482015290519081900360640190fd5b815167ffffffffffffffff81118015610c5857600080fd5b50604051908082528060200260200182016040528015610c82578160200160208202803683370190505b5090508281600183510381518110610c9657fe5b60209081029190910101528151600019015b8015610d2c57600080610ce587866001860381518110610cc457fe5b6020026020010151878681518110610cd857fe5b6020026020010151610e12565b91509150610d07848481518110610cf857fe5b60200260200101518383610ee0565b846001850381518110610d1657fe5b6020908102919091010152505060001901610ca8565b509392505050565b600080826001600160a01b0316846001600160a01b03161415610d885760405162461bcd60e51b81526004018080602001828103825260258152602001806111056025913960400191505060405180910390fd5b826001600160a01b0316846001600160a01b031610610da8578284610dab565b83835b90925090506001600160a01b038216610e0b576040805162461bcd60e51b815260206004820152601e60248201527f556e697377617056324c6962726172793a205a45524f5f414444524553530000604482015290519081900360640190fd5b9250929050565b6000806000610e218585610d34565b509050600080610e32888888610b27565b6001600160a01b0316630902f1ac6040518163ffffffff1660e01b815260040160606040518083038186803b158015610e6a57600080fd5b505afa158015610e7e573d6000803e3d6000fd5b505050506040513d6060811015610e9457600080fd5b5080516020909101516dffffffffffffffffffffffffffff91821693501690506001600160a01b0387811690841614610ece578082610ed1565b81815b90999098509650505050505050565b6000808411610f205760405162461bcd60e51b815260040180806020018281038252602c8152602001806110d9602c913960400191505060405180910390fd5b600083118015610f305750600082115b610f6b5760405162461bcd60e51b815260040180806020018281038252602881526020018061112a6028913960400191505060405180910390fd5b6000610f8f6103e8610f83868863ffffffff610fd016565b9063ffffffff610fd016565b90506000610fa96103e5610f83868963ffffffff61103916565b9050610fc66001828481610fb957fe5b049063ffffffff61108916565b9695505050505050565b6000811580610feb57505080820282828281610fe857fe5b04145b611033576040805162461bcd60e51b815260206004820152601460248201527364732d6d6174682d6d756c2d6f766572666c6f7760601b604482015290519081900360640190fd5b92915050565b80820382811115611033576040805162461bcd60e51b815260206004820152601560248201527464732d6d6174682d7375622d756e646572666c6f7760581b604482015290519081900360640190fd5b80820182811015611033576040805162461bcd60e51b815260206004820152601460248201527364732d6d6174682d6164642d6f766572666c6f7760601b604482015290519081900360640190fdfe556e697377617056324c6962726172793a20494e53554646494349454e545f4f55545055545f414d4f554e54556e697377617056324c6962726172793a204944454e544943414c5f414444524553534553556e697377617056324c6962726172793a20494e53554646494349454e545f4c4951554944495459a264697066735822122007c44d04d7a93ec4743ca2237753f90ecbee53059aa586b9c9e0a7f6186e7f6b64736f6c63430006060033",
  "immutableReferences": {},
  "source": "pragma solidity ^0.6.6;\n\nimport '@uniswap/v2-core/contracts/interfaces/IUniswapV2Callee.sol';\nimport \"@uniswap/v2-periphery/contracts/libraries/UniswapV2Library.sol\";\nimport \"@uniswap/v2-periphery/contracts/interfaces/IUniswapV2Router02.sol\";\nimport \"@uniswap/v2-core/contracts/interfaces/IUniswapV2Factory.sol\";\nimport \"@uniswap/v2-core/contracts/interfaces/IUniswapV2Pair.sol\";\nimport \"@uniswap/v2-core/contracts/interfaces/IERC20.sol\";\n\ncontract Arbitrage {\n    address public factory;\n    uint deadline = now + 10 days;\n    IUniswapV2Router02 public sushiRouter;\n    \n    event pathSwapInfo(address from, address to, uint tokenAmount);\n    event tokenSwapInfo(address from, address to, uint tokenAmount);\n    event amountInInfo(uint first, uint second);\n    event testObject(address addr, uint payback);\n\n    constructor(address _factory, address _sushiRouter) public {\n        factory = _factory;  \n        sushiRouter = IUniswapV2Router02(_sushiRouter);\n    }\n\n    function startArbitrage(address token0, address token1, uint amount0, uint amount1) external {\n        address pairAddress = IUniswapV2Factory(factory).getPair(token0, token1);\n        require(pairAddress != address(0), 'This pool does not exist');\n        IUniswapV2Pair(pairAddress).swap(\n            amount0, \n            amount1, \n            address(this), \n            bytes('not empty')\n        );\n    }\n\n    function uniswapV2Call(address _sender, uint _amount0, uint _amount1, bytes calldata _data) external {\n\n        address[] memory path = new address[](2);\n        uint amountToken = _amount0 == 0 ? _amount1 : _amount0;\n        \n        address token0 = IUniswapV2Pair(msg.sender).token0();\n        address token1 = IUniswapV2Pair(msg.sender).token1();\n\n        require(msg.sender == UniswapV2Library.pairFor(factory, token0, token1), 'Unauthorized'); \n        require(_amount0 == 0 || _amount1 == 0);\n\n        path[0] = _amount0 == 0 ? token1 : token0;\n        path[1] = _amount0 == 0 ? token0 : token1;\n\n        // Define token from:\n        IERC20 token = IERC20(_amount0 == 0 ? token1 : token0);\n\n        // Define token to:\n        IERC20 targetToken = IERC20(_amount0 == 0 ? token0 : token1);\n        \n        token.approve(address(sushiRouter), amountToken);\n        \n        uint allowed = token.allowance(address(this), address(sushiRouter));\n\n        // STEP1 : GET Input Amount of token\n            //Calculate needed input by given output amount (0.01 dai)\n        address[] memory reversePath = new address[](2);\n        reversePath[0] = path[1];\n        reversePath[1] = path[0];\n        uint amountRequired = UniswapV2Library.getAmountsIn(\n            factory, \n            amountToken, \n            reversePath\n        )[0];\n\n        // STEP2: SWAP TOKEN to target token\n        uint amountReceived = sushiRouter.swapExactTokensForTokens(\n            amountToken, \n            amountRequired,\n            path, \n            address(this), \n            deadline\n        )[1];\n        \n        // The fee for flashSwap is .003 / .997 ≈ 0.3009027% (https://uniswap.org/docs/v2/smart-contract-integration/using-flash-swaps/)\n        // uint payback = amountToken*100301/100000;\n        // token.transfer(msg.sender, payback);\n\n        // comaring with flashloan, flashswap seems need not to pay fee bacuase it is included in swap fee.\n        targetToken.transfer(msg.sender, amountRequired);\n        // targetToken.transfer(msg.sender, amountRequired*100301/100000);\n        \n\n        targetToken.transfer(tx.origin, amountReceived-amountRequired);\n\n        emit pathSwapInfo(address(token), address(targetToken), amountToken);\n        emit tokenSwapInfo(address(path[0]), address(path[1]), amountToken);\n        emit amountInInfo(amountRequired, allowed);\n        emit testObject(address(this), amountReceived-amountRequired);\n    }\n}",
  "sourcePath": "/Users/macbookpro4eric/Projects/blockchain/project6_flashswap/contracts/Arbitrage.sol",
  "compiler": {
    "name": "solc",
    "version": "0.6.6+commit.6c089d02.Emscripten.clang"
  },
  "schemaVersion": "3.3.4",
  "updatedAt": "2021-04-23T11:38:35.261Z",
  "networkType": "ethereum",
  "devdoc": {
    "methods": {}
  },
  "userdoc": {
    "methods": {}
  }
}