{
  "contractName": "Arbitrage",
  "abi": [
    {
      "inputs": [
        {
          "internalType": "address",
          "name": "_factory",
          "type": "address"
        },
        {
          "internalType": "address",
          "name": "_sushiRouter",
          "type": "address"
        }
      ],
      "stateMutability": "nonpayable",
      "type": "constructor"
    },
    {
      "anonymous": false,
      "inputs": [
        {
          "indexed": false,
          "internalType": "uint256",
          "name": "first",
          "type": "uint256"
        },
        {
          "indexed": false,
          "internalType": "uint256",
          "name": "second",
          "type": "uint256"
        }
      ],
      "name": "amountInInfo",
      "type": "event"
    },
    {
      "anonymous": false,
      "inputs": [
        {
          "indexed": false,
          "internalType": "address",
          "name": "addr",
          "type": "address"
        },
        {
          "indexed": false,
          "internalType": "uint256",
          "name": "payback",
          "type": "uint256"
        }
      ],
      "name": "testObject",
      "type": "event"
    },
    {
      "inputs": [],
      "name": "factory",
      "outputs": [
        {
          "internalType": "address",
          "name": "",
          "type": "address"
        }
      ],
      "stateMutability": "view",
      "type": "function",
      "constant": true
    },
    {
      "inputs": [],
      "name": "owner",
      "outputs": [
        {
          "internalType": "address",
          "name": "",
          "type": "address"
        }
      ],
      "stateMutability": "view",
      "type": "function",
      "constant": true
    },
    {
      "inputs": [],
      "name": "sushiFactory",
      "outputs": [
        {
          "internalType": "address",
          "name": "",
          "type": "address"
        }
      ],
      "stateMutability": "view",
      "type": "function",
      "constant": true
    },
    {
      "inputs": [],
      "name": "sushiRouter",
      "outputs": [
        {
          "internalType": "contract IUniswapV2Router02",
          "name": "",
          "type": "address"
        }
      ],
      "stateMutability": "view",
      "type": "function",
      "constant": true
    },
    {
      "inputs": [
        {
          "internalType": "address",
          "name": "token0",
          "type": "address"
        },
        {
          "internalType": "address",
          "name": "token1",
          "type": "address"
        },
        {
          "internalType": "uint256",
          "name": "amount0",
          "type": "uint256"
        },
        {
          "internalType": "uint256",
          "name": "amount1",
          "type": "uint256"
        }
      ],
      "name": "startArbitrage",
      "outputs": [],
      "stateMutability": "nonpayable",
      "type": "function"
    },
    {
      "inputs": [
        {
          "internalType": "address",
          "name": "_sender",
          "type": "address"
        },
        {
          "internalType": "uint256",
          "name": "_amount0",
          "type": "uint256"
        },
        {
          "internalType": "uint256",
          "name": "_amount1",
          "type": "uint256"
        },
        {
          "internalType": "bytes",
          "name": "_data",
          "type": "bytes"
        }
      ],
      "name": "uniswapV2Call",
      "outputs": [],
      "stateMutability": "nonpayable",
      "type": "function"
    }
  ],
  "bytecode": "0x608060405242620d2f000160035534801561001957600080fd5b5060405161112d38038061112d8339818101604052604081101561003c57600080fd5b508051602090910151600280546001600160a01b03199081163317909155600080546001600160a01b039485169083161790556004805493909216921691909117905561109f8061008e6000396000f3fe608060405234801561001057600080fd5b50600436106100625760003560e01c806310d1e85c1461006757806322984b24146100f55780636d13582c1461011957806376e9d066146101215780638da5cb5b1461015d578063c45a015514610165575b600080fd5b6100f36004803603608081101561007d57600080fd5b6001600160a01b0382351691602081013591604082013591908101906080810160608201356401000000008111156100b457600080fd5b8201836020820111156100c657600080fd5b803590602001918460018302840111640100000000831117156100e857600080fd5b50909250905061016d565b005b6100fd6107b4565b604080516001600160a01b039092168252519081900360200190f35b6100fd6107c3565b6100f36004803603608081101561013757600080fd5b506001600160a01b038135811691602081013590911690604081013590606001356107d2565b6100fd6109fc565b6100fd610a0b565b6000841561017b578461017d565b835b6040805160028082526060808301845293945090916020830190803683370190505090506000336001600160a01b0316630dfe16816040518163ffffffff1660e01b815260040160206040518083038186803b1580156101dc57600080fd5b505afa1580156101f0573d6000803e3d6000fd5b505050506040513d602081101561020657600080fd5b50516040805163d21220a760e01b81529051919250600091339163d21220a7916004808301926020929190829003018186803b15801561024557600080fd5b505afa158015610259573d6000803e3d6000fd5b505050506040513d602081101561026f57600080fd5b505160005490915061028b906001600160a01b03168383610a1a565b6001600160a01b0316336001600160a01b0316146102df576040805162461bcd60e51b815260206004820152600c60248201526b155b985d5d1a1bdc9a5e995960a21b604482015290519081900360640190fd5b8715806102ea575086155b6102f357600080fd5b87156102ff5781610301565b805b8360008151811061030e57fe5b6001600160a01b039092166020928302919091019091015287156103325780610334565b815b8360018151811061034157fe5b6001600160a01b0390921660209283029190910190910152600088156103675782610369565b815b905060008915610379578261037b565b835b600480546040805163095ea7b360e01b81526001600160a01b0392831693810193909352602483018a90525192935084169163095ea7b3916044808201926020929091908290030181600087803b1580156103d557600080fd5b505af11580156103e9573d6000803e3d6000fd5b505050506040513d60208110156103ff57600080fd5b505060408051600280825260608083018452926020830190803683370190505090508560018151811061042e57fe5b60200260200101518160008151811061044357fe5b60200260200101906001600160a01b031690816001600160a01b0316815250508560008151811061047057fe5b60200260200101518160018151811061048557fe5b6001600160a01b0392831660209182029290920101526000805490916104ad91168984610ada565b6000815181106104b957fe5b602002602001015190506000600460009054906101000a90046001600160a01b03166001600160a01b03166338ed17398a848b306003546040518663ffffffff1660e01b81526004018086815260200185815260200180602001846001600160a01b03166001600160a01b03168152602001838152602001828103825285818151815260200191508051906020019060200280838360005b83811015610569578181015183820152602001610551565b505050509050019650505050505050600060405180830381600087803b15801561059257600080fd5b505af11580156105a6573d6000803e3d6000fd5b505050506040513d6000823e601f3d908101601f1916820160405260208110156105cf57600080fd5b81019080805160405193929190846401000000008211156105ef57600080fd5b90830190602082018581111561060457600080fd5b825186602082028301116401000000008211171561062157600080fd5b82525081516020918201928201910280838360005b8381101561064e578181015183820152602001610636565b5050505090500160405250505060018151811061066757fe5b6020908102919091018101516040805163a9059cbb60e01b81523360048201526024810186905290519193506001600160a01b0387169263a9059cbb926044808401938290030181600087803b1580156106c057600080fd5b505af11580156106d4573d6000803e3d6000fd5b505050506040513d60208110156106ea57600080fd5b50506040805163a9059cbb60e01b8152326004820152838303602482015290516001600160a01b0386169163a9059cbb9160448083019260209291908290030181600087803b15801561073c57600080fd5b505af1158015610750573d6000803e3d6000fd5b505050506040513d602081101561076657600080fd5b505060408051838152838303602082015281517f31a76737cf95d5a1fdc496d480ab2dfe3b7f84ca046e4c4e6bad329c60ae46c3929181900390910190a15050505050505050505050505050565b6001546001600160a01b031681565b6004546001600160a01b031681565b6002546001600160a01b0316331461081b5760405162461bcd60e51b81526004018080602001828103825260258152602001806110456025913960400191505060405180910390fd5b600080546040805163e6a4390560e01b81526001600160a01b03888116600483015287811660248301529151919092169163e6a43905916044808301926020929190829003018186803b15801561087157600080fd5b505afa158015610885573d6000803e3d6000fd5b505050506040513d602081101561089b57600080fd5b505190506001600160a01b0381166108fa576040805162461bcd60e51b815260206004820152601860248201527f5468697320706f6f6c20646f6573206e6f742065786973740000000000000000604482015290519081900360640190fd5b60408051808201825260098152686e6f7420656d70747960b81b60208201908152915163022c0d9f60e01b8152600481018681526024820186905230604483018190526080606484019081528451608485015284516001600160a01b0388169663022c0d9f968b968b9691949193919260a49091019180838360005b8381101561098e578181015183820152602001610976565b50505050905090810190601f1680156109bb5780820380516001836020036101000a031916815260200191505b5095505050505050600060405180830381600087803b1580156109dd57600080fd5b505af11580156109f1573d6000803e3d6000fd5b505050505050505050565b6002546001600160a01b031681565b6000546001600160a01b031681565b6000806000610a298585610c27565b604080516bffffffffffffffffffffffff19606094851b811660208084019190915293851b81166034830152825160288184030181526048830184528051908501206001600160f81b031960688401529a90941b9093166069840152607d8301989098527f96e8ac4277198ff8b6f785478aa9a39f403cb768dd02cbee326c3e7da348845f609d808401919091528851808403909101815260bd909201909752805196019590952095945050505050565b6060600282511015610b33576040805162461bcd60e51b815260206004820152601e60248201527f556e697377617056324c6962726172793a20494e56414c49445f504154480000604482015290519081900360640190fd5b815167ffffffffffffffff81118015610b4b57600080fd5b50604051908082528060200260200182016040528015610b75578160200160208202803683370190505b5090508281600183510381518110610b8957fe5b60209081029190910101528151600019015b8015610c1f57600080610bd887866001860381518110610bb757fe5b6020026020010151878681518110610bcb57fe5b6020026020010151610d05565b91509150610bfa848481518110610beb57fe5b60200260200101518383610dd3565b846001850381518110610c0957fe5b6020908102919091010152505060001901610b9b565b509392505050565b600080826001600160a01b0316846001600160a01b03161415610c7b5760405162461bcd60e51b8152600401808060200182810382526025815260200180610ff86025913960400191505060405180910390fd5b826001600160a01b0316846001600160a01b031610610c9b578284610c9e565b83835b90925090506001600160a01b038216610cfe576040805162461bcd60e51b815260206004820152601e60248201527f556e697377617056324c6962726172793a205a45524f5f414444524553530000604482015290519081900360640190fd5b9250929050565b6000806000610d148585610c27565b509050600080610d25888888610a1a565b6001600160a01b0316630902f1ac6040518163ffffffff1660e01b815260040160606040518083038186803b158015610d5d57600080fd5b505afa158015610d71573d6000803e3d6000fd5b505050506040513d6060811015610d8757600080fd5b5080516020909101516dffffffffffffffffffffffffffff91821693501690506001600160a01b0387811690841614610dc1578082610dc4565b81815b90999098509650505050505050565b6000808411610e135760405162461bcd60e51b815260040180806020018281038252602c815260200180610fcc602c913960400191505060405180910390fd5b600083118015610e235750600082115b610e5e5760405162461bcd60e51b815260040180806020018281038252602881526020018061101d6028913960400191505060405180910390fd5b6000610e826103e8610e76868863ffffffff610ec316565b9063ffffffff610ec316565b90506000610e9c6103e5610e76868963ffffffff610f2c16565b9050610eb96001828481610eac57fe5b049063ffffffff610f7c16565b9695505050505050565b6000811580610ede57505080820282828281610edb57fe5b04145b610f26576040805162461bcd60e51b815260206004820152601460248201527364732d6d6174682d6d756c2d6f766572666c6f7760601b604482015290519081900360640190fd5b92915050565b80820382811115610f26576040805162461bcd60e51b815260206004820152601560248201527464732d6d6174682d7375622d756e646572666c6f7760581b604482015290519081900360640190fd5b80820182811015610f26576040805162461bcd60e51b815260206004820152601460248201527364732d6d6174682d6164642d6f766572666c6f7760601b604482015290519081900360640190fdfe556e697377617056324c6962726172793a20494e53554646494349454e545f4f55545055545f414d4f554e54556e697377617056324c6962726172793a204944454e544943414c5f414444524553534553556e697377617056324c6962726172793a20494e53554646494349454e545f4c49515549444954594f6e6c79206f776e657220616c6c6f777320746f2063616c6c2074686973206d6574686f64a26469706673582212208d52ae0290156e5d97495d2d60d48d88f0bb1ed3d381e40a3f3b7ca5661e8dbb64736f6c63430006060033",
  "immutableReferences": {},
  "source": "pragma solidity ^0.6.6;\n\nimport '@uniswap/v2-core/contracts/interfaces/IUniswapV2Callee.sol';\nimport \"@uniswap/v2-periphery/contracts/libraries/UniswapV2Library.sol\";\nimport \"@uniswap/v2-periphery/contracts/interfaces/IUniswapV2Router02.sol\";\nimport \"@uniswap/v2-core/contracts/interfaces/IUniswapV2Factory.sol\";\nimport \"@uniswap/v2-core/contracts/interfaces/IUniswapV2Pair.sol\";\nimport \"@uniswap/v2-core/contracts/interfaces/IERC20.sol\";\n\ncontract Arbitrage {\n    address public factory;\n    address public sushiFactory;\n    address public owner;\n    uint deadline = now + 10 days;\n    IUniswapV2Router02 public sushiRouter;\n    \n    // event pathSwapInfo(address from, address to, uint tokenAmount);\n    // event tokenSwapInfo(address from, address to, uint tokenAmount);\n    event amountInInfo(uint first, uint second);\n    event testObject(address addr, uint payback);\n\n    constructor(address _factory, address _sushiRouter/*, address _sushiFactory*/) public {\n        owner = msg.sender;\n        factory = _factory;  \n        // sushiFactory = _sushiFactory;\n        sushiRouter = IUniswapV2Router02(_sushiRouter);\n    }\n\n    modifier onlyOwner() {\n        require(msg.sender == owner, \"Only owner allows to call this method\");\n        _;\n    }\n\n    function startArbitrage(address token0, address token1, uint amount0, uint amount1) external onlyOwner {\n        address pairAddress = IUniswapV2Factory(factory).getPair(token0, token1);\n        require(pairAddress != address(0), 'This pool does not exist');\n        IUniswapV2Pair(pairAddress).swap(\n            amount0, \n            amount1, \n            address(this), \n            bytes('not empty')\n        );\n    }\n\n    function uniswapV2Call(address _sender, uint _amount0, uint _amount1, bytes calldata _data) external {\n        uint amountToken = _amount0 == 0 ? _amount1 : _amount0;\n        address[] memory path = new address[](2);        \n        address token0 = IUniswapV2Pair(msg.sender).token0();\n        address token1 = IUniswapV2Pair(msg.sender).token1();\n\n        require(msg.sender == UniswapV2Library.pairFor(factory, token0, token1), 'Unauthorized'); \n        require(_amount0 == 0 || _amount1 == 0);\n\n        path[0] = _amount0 == 0 ? token1 : token0;\n        path[1] = _amount0 == 0 ? token0 : token1;\n\n        // Define token from:\n        IERC20 token = IERC20(_amount0 == 0 ? token1 : token0);\n\n        // Define token to:\n        IERC20 targetToken = IERC20(_amount0 == 0 ? token0 : token1);\n        \n        token.approve(address(sushiRouter), amountToken);\n        \n        // uint allowed = token.allowance(address(this), address(sushiRouter));\n\n        // STEP1 : GET Input Amount of token\n        //Calculate needed input by given output amount (0.01 dai)\n        address[] memory reversePath = new address[](2);\n        reversePath[0] = path[1];\n        reversePath[1] = path[0];\n        uint amountRequired = UniswapV2Library.getAmountsIn(\n            factory, \n            amountToken, \n            reversePath\n        )[0];\n\n        // STEP2: SWAP TOKEN to target token\n        uint amountReceived = sushiRouter.swapExactTokensForTokens(\n            amountToken, \n            amountRequired,\n            path, \n            address(this), \n            deadline\n        )[1];\n        \n        targetToken.transfer(msg.sender, amountRequired);\n\n        targetToken.transfer(tx.origin, amountReceived-amountRequired);\n\n        emit amountInInfo(amountRequired, amountReceived-amountRequired);\n    }\n}",
  "sourcePath": "/Users/macbookpro4eric/Projects/blockchain/project6_flashswap/contracts/Arbitrage.sol",
  "compiler": {
    "name": "solc",
    "version": "0.6.6+commit.6c089d02.Emscripten.clang"
  },
  "schemaVersion": "3.3.4",
  "updatedAt": "2021-04-27T14:02:35.286Z",
  "networkType": "ethereum",
  "devdoc": {
    "methods": {}
  },
  "userdoc": {
    "methods": {}
  }
}