{
  "contractName": "Arbitrage",
  "abi": [
    {
      "inputs": [
        {
          "internalType": "address",
          "name": "_factory",
          "type": "address"
        },
        {
          "internalType": "address",
          "name": "_sushiRouter",
          "type": "address"
        }
      ],
      "stateMutability": "nonpayable",
      "type": "constructor"
    },
    {
      "anonymous": false,
      "inputs": [
        {
          "indexed": false,
          "internalType": "uint256",
          "name": "first",
          "type": "uint256"
        },
        {
          "indexed": false,
          "internalType": "uint256",
          "name": "second",
          "type": "uint256"
        }
      ],
      "name": "amountInInfo",
      "type": "event"
    },
    {
      "anonymous": false,
      "inputs": [
        {
          "indexed": false,
          "internalType": "address",
          "name": "from",
          "type": "address"
        },
        {
          "indexed": false,
          "internalType": "address",
          "name": "to",
          "type": "address"
        },
        {
          "indexed": false,
          "internalType": "uint256",
          "name": "tokenAmount",
          "type": "uint256"
        }
      ],
      "name": "pathSwapInfo",
      "type": "event"
    },
    {
      "anonymous": false,
      "inputs": [
        {
          "indexed": false,
          "internalType": "address",
          "name": "addr",
          "type": "address"
        },
        {
          "indexed": false,
          "internalType": "uint256",
          "name": "payback",
          "type": "uint256"
        }
      ],
      "name": "testObject",
      "type": "event"
    },
    {
      "anonymous": false,
      "inputs": [
        {
          "indexed": false,
          "internalType": "address",
          "name": "from",
          "type": "address"
        },
        {
          "indexed": false,
          "internalType": "address",
          "name": "to",
          "type": "address"
        },
        {
          "indexed": false,
          "internalType": "uint256",
          "name": "tokenAmount",
          "type": "uint256"
        }
      ],
      "name": "tokenSwapInfo",
      "type": "event"
    },
    {
      "inputs": [],
      "name": "factory",
      "outputs": [
        {
          "internalType": "address",
          "name": "",
          "type": "address"
        }
      ],
      "stateMutability": "view",
      "type": "function",
      "constant": true
    },
    {
      "inputs": [],
      "name": "sushiRouter",
      "outputs": [
        {
          "internalType": "contract IUniswapV2Router02",
          "name": "",
          "type": "address"
        }
      ],
      "stateMutability": "view",
      "type": "function",
      "constant": true
    },
    {
      "inputs": [
        {
          "internalType": "address",
          "name": "token0",
          "type": "address"
        },
        {
          "internalType": "address",
          "name": "token1",
          "type": "address"
        },
        {
          "internalType": "uint256",
          "name": "amount0",
          "type": "uint256"
        },
        {
          "internalType": "uint256",
          "name": "amount1",
          "type": "uint256"
        }
      ],
      "name": "startArbitrage",
      "outputs": [],
      "stateMutability": "nonpayable",
      "type": "function"
    },
    {
      "inputs": [
        {
          "internalType": "address",
          "name": "_sender",
          "type": "address"
        },
        {
          "internalType": "uint256",
          "name": "_amount0",
          "type": "uint256"
        },
        {
          "internalType": "uint256",
          "name": "_amount1",
          "type": "uint256"
        },
        {
          "internalType": "bytes",
          "name": "_data",
          "type": "bytes"
        }
      ],
      "name": "uniswapV2Call",
      "outputs": [],
      "stateMutability": "nonpayable",
      "type": "function"
    }
  ],
  "bytecode": "0x608060405242620d2f000160015534801561001957600080fd5b506040516114183803806114188339818101604052604081101561003c57600080fd5b508051602090910151600080546001600160a01b039384166001600160a01b03199182161790915560028054939092169216919091179055611395806100836000396000f3fe608060405234801561001057600080fd5b506004361061004c5760003560e01c806310d1e85c146100515780636d13582c146100df57806376e9d06614610103578063c45a01551461013f575b600080fd5b6100dd6004803603608081101561006757600080fd5b6001600160a01b03823516916020810135916040820135919081019060808101606082013564010000000081111561009e57600080fd5b8201836020820111156100b057600080fd5b803590602001918460018302840111640100000000831117156100d257600080fd5b509092509050610147565b005b6100e76108e4565b604080516001600160a01b039092168252519081900360200190f35b6100dd6004803603608081101561011957600080fd5b506001600160a01b038135811691602081013590911690604081013590606001356108f3565b6100e7610ad4565b6040805160028082526060808301845292602083019080368337019050509050600085156101755785610177565b845b90506000336001600160a01b0316630dfe16816040518163ffffffff1660e01b815260040160206040518083038186803b1580156101b457600080fd5b505afa1580156101c8573d6000803e3d6000fd5b505050506040513d60208110156101de57600080fd5b50516040805163d21220a760e01b81529051919250600091339163d21220a7916004808301926020929190829003018186803b15801561021d57600080fd5b505afa158015610231573d6000803e3d6000fd5b505050506040513d602081101561024757600080fd5b5051600054909150610263906001600160a01b03168383610ae3565b6001600160a01b0316336001600160a01b0316146102b7576040805162461bcd60e51b815260206004820152600c60248201526b155b985d5d1a1bdc9a5e995960a21b604482015290519081900360640190fd5b8715806102c2575086155b6102cb57600080fd5b87156102d757816102d9565b805b846000815181106102e657fe5b6001600160a01b0390921660209283029190910190910152871561030a578061030c565b815b8460018151811061031957fe5b6001600160a01b03909216602092830291909101909101526000881561033f5782610341565b815b9050600089156103515782610353565b835b6002546040805163095ea7b360e01b81526001600160a01b0392831660048201526024810189905290519293509084169163095ea7b3916044808201926020929091908290030181600087803b1580156103ac57600080fd5b505af11580156103c0573d6000803e3d6000fd5b505050506040513d60208110156103d657600080fd5b505060025460408051636eb1769f60e11b81523060048201526001600160a01b039283166024820152905160009285169163dd62ed3e916044808301926020929190829003018186803b15801561042c57600080fd5b505afa158015610440573d6000803e3d6000fd5b505050506040513d602081101561045657600080fd5b50516040805160028082526060808301845293945090916020830190803683370190505090508760018151811061048957fe5b60200260200101518160008151811061049e57fe5b60200260200101906001600160a01b031690816001600160a01b031681525050876000815181106104cb57fe5b6020026020010151816001815181106104e057fe5b6001600160a01b03928316602091820292909201015260008054909161050891168984610ba3565b60008151811061051457fe5b60200260200101519050600061053f6000809054906101000a90046001600160a01b03168a8c610cf0565b60018151811061054b57fe5b602002602001015190506000600260009054906101000a90046001600160a01b03166001600160a01b03166338ed17398b858e306001546040518663ffffffff1660e01b81526004018086815260200185815260200180602001846001600160a01b03166001600160a01b03168152602001838152602001828103825285818151815260200191508051906020019060200280838360005b838110156105fb5781810151838201526020016105e3565b505050509050019650505050505050600060405180830381600087803b15801561062457600080fd5b505af1158015610638573d6000803e3d6000fd5b505050506040513d6000823e601f3d908101601f19168201604052602081101561066157600080fd5b810190808051604051939291908464010000000082111561068157600080fd5b90830190602082018581111561069657600080fd5b82518660208202830111640100000000821117156106b357600080fd5b82525081516020918201928201910280838360005b838110156106e05781810151838201526020016106c8565b505050509050016040525050506001815181106106f957fe5b6020908102919091018101516040805163a9059cbb60e01b81523360048201526024810187905290519193506001600160a01b0389169263a9059cbb926044808401938290030181600087803b15801561075257600080fd5b505af1158015610766573d6000803e3d6000fd5b505050506040513d602081101561077c57600080fd5b5050604080516001600160a01b03808a168252881660208201528082018c905290517f3766f55a11881ba622830519fe0872ba2445e0adedf6068999c235042913cf019181900360600190a17f825854be9f09c3e95bfc56886e5f784fedc4b5fb7d5a57f2a1add6c2621dbf748b6000815181106107f657fe5b60200260200101518c60018151811061080b57fe5b60200260200101518c60405180846001600160a01b03166001600160a01b03168152602001836001600160a01b03166001600160a01b03168152602001828152602001935050505060405180910390a1604080518481526020810187905281517f31a76737cf95d5a1fdc496d480ab2dfe3b7f84ca046e4c4e6bad329c60ae46c3929181900390910190a160408051308152848303602082015281517f94efe9e3a607a4e30f0648e6ce6914ff92832ee52251536f2eda54df8a7d320b929181900390910190a150505050505050505050505050505050565b6002546001600160a01b031681565b600080546040805163e6a4390560e01b81526001600160a01b03888116600483015287811660248301529151919092169163e6a43905916044808301926020929190829003018186803b15801561094957600080fd5b505afa15801561095d573d6000803e3d6000fd5b505050506040513d602081101561097357600080fd5b505190506001600160a01b0381166109d2576040805162461bcd60e51b815260206004820152601860248201527f5468697320706f6f6c20646f6573206e6f742065786973740000000000000000604482015290519081900360640190fd5b60408051808201825260098152686e6f7420656d70747960b81b60208201908152915163022c0d9f60e01b8152600481018681526024820186905230604483018190526080606484019081528451608485015284516001600160a01b0388169663022c0d9f968b968b9691949193919260a49091019180838360005b83811015610a66578181015183820152602001610a4e565b50505050905090810190601f168015610a935780820380516001836020036101000a031916815260200191505b5095505050505050600060405180830381600087803b158015610ab557600080fd5b505af1158015610ac9573d6000803e3d6000fd5b505050505050505050565b6000546001600160a01b031681565b6000806000610af28585610e27565b604080516bffffffffffffffffffffffff19606094851b811660208084019190915293851b81166034830152825160288184030181526048830184528051908501206001600160f81b031960688401529a90941b9093166069840152607d8301989098527f96e8ac4277198ff8b6f785478aa9a39f403cb768dd02cbee326c3e7da348845f609d808401919091528851808403909101815260bd909201909752805196019590952095945050505050565b6060600282511015610bfc576040805162461bcd60e51b815260206004820152601e60248201527f556e697377617056324c6962726172793a20494e56414c49445f504154480000604482015290519081900360640190fd5b815167ffffffffffffffff81118015610c1457600080fd5b50604051908082528060200260200182016040528015610c3e578160200160208202803683370190505b5090508281600183510381518110610c5257fe5b60209081029190910101528151600019015b8015610ce857600080610ca187866001860381518110610c8057fe5b6020026020010151878681518110610c9457fe5b6020026020010151610f05565b91509150610cc3848481518110610cb457fe5b60200260200101518383610fd3565b846001850381518110610cd257fe5b6020908102919091010152505060001901610c64565b509392505050565b6060600282511015610d49576040805162461bcd60e51b815260206004820152601e60248201527f556e697377617056324c6962726172793a20494e56414c49445f504154480000604482015290519081900360640190fd5b815167ffffffffffffffff81118015610d6157600080fd5b50604051908082528060200260200182016040528015610d8b578160200160208202803683370190505b5090508281600081518110610d9c57fe5b60200260200101818152505060005b6001835103811015610ce857600080610de187868581518110610dca57fe5b6020026020010151878660010181518110610c9457fe5b91509150610e03848481518110610df457fe5b602002602001015183836110c3565b848460010181518110610e1257fe5b60209081029190910101525050600101610dab565b600080826001600160a01b0316846001600160a01b03161415610e7b5760405162461bcd60e51b81526004018080602001828103825260258152602001806112e86025913960400191505060405180910390fd5b826001600160a01b0316846001600160a01b031610610e9b578284610e9e565b83835b90925090506001600160a01b038216610efe576040805162461bcd60e51b815260206004820152601e60248201527f556e697377617056324c6962726172793a205a45524f5f414444524553530000604482015290519081900360640190fd5b9250929050565b6000806000610f148585610e27565b509050600080610f25888888610ae3565b6001600160a01b0316630902f1ac6040518163ffffffff1660e01b815260040160606040518083038186803b158015610f5d57600080fd5b505afa158015610f71573d6000803e3d6000fd5b505050506040513d6060811015610f8757600080fd5b5080516020909101516dffffffffffffffffffffffffffff91821693501690506001600160a01b0387811690841614610fc1578082610fc4565b81815b90999098509650505050505050565b60008084116110135760405162461bcd60e51b815260040180806020018281038252602c8152602001806112bc602c913960400191505060405180910390fd5b6000831180156110235750600082115b61105e5760405162461bcd60e51b815260040180806020018281038252602881526020018061130d6028913960400191505060405180910390fd5b60006110826103e8611076868863ffffffff6111b316565b9063ffffffff6111b316565b9050600061109c6103e5611076868963ffffffff61121c16565b90506110b960018284816110ac57fe5b049063ffffffff61126c16565b9695505050505050565b60008084116111035760405162461bcd60e51b815260040180806020018281038252602b815260200180611335602b913960400191505060405180910390fd5b6000831180156111135750600082115b61114e5760405162461bcd60e51b815260040180806020018281038252602881526020018061130d6028913960400191505060405180910390fd5b6000611162856103e563ffffffff6111b316565b90506000611176828563ffffffff6111b316565b9050600061119c83611190886103e863ffffffff6111b316565b9063ffffffff61126c16565b90508082816111a757fe5b04979650505050505050565b60008115806111ce575050808202828282816111cb57fe5b04145b611216576040805162461bcd60e51b815260206004820152601460248201527364732d6d6174682d6d756c2d6f766572666c6f7760601b604482015290519081900360640190fd5b92915050565b80820382811115611216576040805162461bcd60e51b815260206004820152601560248201527464732d6d6174682d7375622d756e646572666c6f7760581b604482015290519081900360640190fd5b80820182811015611216576040805162461bcd60e51b815260206004820152601460248201527364732d6d6174682d6164642d6f766572666c6f7760601b604482015290519081900360640190fdfe556e697377617056324c6962726172793a20494e53554646494349454e545f4f55545055545f414d4f554e54556e697377617056324c6962726172793a204944454e544943414c5f414444524553534553556e697377617056324c6962726172793a20494e53554646494349454e545f4c4951554944495459556e697377617056324c6962726172793a20494e53554646494349454e545f494e5055545f414d4f554e54a2646970667358221220c4c5daced69d68bf027f4887406ea7b615421e906709770ea9c8fb973e91c85664736f6c63430006060033",
  "immutableReferences": {},
  "source": "pragma solidity ^0.6.6;\n\nimport '@uniswap/v2-core/contracts/interfaces/IUniswapV2Callee.sol';\nimport \"@uniswap/v2-periphery/contracts/libraries/UniswapV2Library.sol\";\nimport \"@uniswap/v2-periphery/contracts/interfaces/IUniswapV2Router02.sol\";\nimport \"@uniswap/v2-core/contracts/interfaces/IUniswapV2Factory.sol\";\nimport \"@uniswap/v2-core/contracts/interfaces/IUniswapV2Pair.sol\";\nimport \"@uniswap/v2-core/contracts/interfaces/IERC20.sol\";\n\ncontract Arbitrage {\n    address public factory;\n    uint deadline = now + 10 days;\n    IUniswapV2Router02 public sushiRouter;\n    \n    event pathSwapInfo(address from, address to, uint tokenAmount);\n    event tokenSwapInfo(address from, address to, uint tokenAmount);\n    event amountInInfo(uint first, uint second);\n    event testObject(address addr, uint payback);\n\n    constructor(address _factory, address _sushiRouter) public {\n        factory = _factory;  \n        sushiRouter = IUniswapV2Router02(_sushiRouter);\n    }\n\n    function startArbitrage(address token0, address token1, uint amount0, uint amount1) external {\n        address pairAddress = IUniswapV2Factory(factory).getPair(token0, token1);\n        require(pairAddress != address(0), 'This pool does not exist');\n        IUniswapV2Pair(pairAddress).swap(\n            amount0, \n            amount1, \n            address(this), \n            bytes('not empty')\n        );\n    }\n\n    function uniswapV2Call(address _sender, uint _amount0, uint _amount1, bytes calldata _data) external {\n\n        address[] memory path = new address[](2);\n        uint amountToken = _amount0 == 0 ? _amount1 : _amount0;\n        \n        address token0 = IUniswapV2Pair(msg.sender).token0();\n        address token1 = IUniswapV2Pair(msg.sender).token1();\n\n        require(msg.sender == UniswapV2Library.pairFor(factory, token0, token1), 'Unauthorized'); \n        require(_amount0 == 0 || _amount1 == 0);\n\n        path[0] = _amount0 == 0 ? token1 : token0;\n        path[1] = _amount0 == 0 ? token0 : token1;\n\n        // Define token from:\n        IERC20 token = IERC20(_amount0 == 0 ? token1 : token0);\n\n        // Define token to:\n        IERC20 targetToken = IERC20(_amount0 == 0 ? token0 : token1);\n        \n        token.approve(address(sushiRouter), amountToken);\n        \n        uint allowed = token.allowance(address(this), address(sushiRouter));\n\n        // TODO1 : GET Input Amount of token\n            //Calculate needed input by given output amount (0.01 dai)\n        address[] memory reversePath = new address[](2);\n        reversePath[0] = path[1];\n        reversePath[1] = path[0];\n        uint amountRequired = UniswapV2Library.getAmountsIn(\n            factory, \n            amountToken, \n            reversePath\n        )[0];\n\n        uint amountOut = UniswapV2Library.getAmountsOut(\n            factory,\n            amountToken,\n            path         \n        )[1];\n\n        // TODO2: SWAP TOKEN to target token\n        uint amountReceived = sushiRouter.swapExactTokensForTokens(\n            amountToken, \n            amountRequired,\n            // 1,\n            path, \n            address(this), \n            deadline\n        )[1];\n        \n        // The fee for flashSwap is .003 / .997 ≈ 0.3009027% (https://uniswap.org/docs/v2/smart-contract-integration/using-flash-swaps/)\n        // uint payback = amountToken*100301/100000;\n        // token.transfer(msg.sender, payback);\n\n        // comaring with flashloan, flashswap seems need not to pay fee bacuase it is included in swap fee.\n        targetToken.transfer(msg.sender, amountRequired);\n        // targetToken.transfer(msg.sender, amountRequired*100301/100000);\n\n        emit pathSwapInfo(address(token), address(targetToken), amountToken);\n        emit tokenSwapInfo(address(path[0]), address(path[1]), amountToken);\n        emit amountInInfo(amountRequired, allowed);\n        emit testObject(address(this), amountReceived-amountRequired);\n    }\n}",
  "sourcePath": "/Users/macbookpro4eric/Projects/blockchain/project6_flashswap/contracts/Arbitrage.sol",
  "compiler": {
    "name": "solc",
    "version": "0.6.6+commit.6c089d02.Emscripten.clang"
  },
  "schemaVersion": "3.3.4",
  "updatedAt": "2021-04-23T04:01:06.792Z",
  "networkType": "ethereum",
  "devdoc": {
    "methods": {}
  },
  "userdoc": {
    "methods": {}
  }
}