{
  "contractName": "Router",
  "abi": [
    {
      "inputs": [
        {
          "internalType": "uint256",
          "name": "amountIn",
          "type": "uint256"
        },
        {
          "internalType": "uint256",
          "name": "amountOutMin",
          "type": "uint256"
        },
        {
          "internalType": "address[]",
          "name": "path",
          "type": "address[]"
        },
        {
          "internalType": "address",
          "name": "to",
          "type": "address"
        },
        {
          "internalType": "uint256",
          "name": "deadline",
          "type": "uint256"
        }
      ],
      "name": "swapExactTokensForTokens",
      "outputs": [
        {
          "internalType": "uint256[]",
          "name": "amounts",
          "type": "uint256[]"
        }
      ],
      "stateMutability": "nonpayable",
      "type": "function"
    },
    {
      "inputs": [
        {
          "internalType": "uint256",
          "name": "amountIn",
          "type": "uint256"
        },
        {
          "internalType": "address[]",
          "name": "path",
          "type": "address[]"
        }
      ],
      "name": "getAmountsOut",
      "outputs": [
        {
          "internalType": "uint256[]",
          "name": "amounts",
          "type": "uint256[]"
        }
      ],
      "stateMutability": "view",
      "type": "function",
      "constant": true
    },
    {
      "inputs": [
        {
          "internalType": "uint256",
          "name": "amountOut",
          "type": "uint256"
        },
        {
          "internalType": "address[]",
          "name": "path",
          "type": "address[]"
        }
      ],
      "name": "getAmountsIn",
      "outputs": [
        {
          "internalType": "uint256[]",
          "name": "amounts",
          "type": "uint256[]"
        }
      ],
      "stateMutability": "view",
      "type": "function",
      "constant": true
    }
  ],
  "bytecode": "0x608060405234801561001057600080fd5b50610215806100206000396000f3fe608060405234801561001057600080fd5b50600436106100415760003560e01c80631f00ca741461004657806338ed173914610140578063d06ca61f14610046575b600080fd5b6100f06004803603604081101561005c57600080fd5b8135919081019060408101602082013564010000000081111561007e57600080fd5b82018360208201111561009057600080fd5b803590602001918460208302840111640100000000831117156100b257600080fd5b9190808060200260200160405190810160405280939291908181526020018383602002808284376000920191909152509295506101cb945050505050565b60408051602080825283518183015283519192839290830191858101910280838360005b8381101561012c578181015183820152602001610114565b505050509050019250505060405180910390f35b6100f0600480360360a081101561015657600080fd5b81359160208101359181019060608101604082013564010000000081111561017d57600080fd5b82018360208201111561018f57600080fd5b803590602001918460208302840111640100000000831117156101b157600080fd5b91935091506001600160a01b0381351690602001356101d3565b606092915050565b6060969550505050505056fea26469706673582212206d8fb67550efbadafdd42478ba85692d09105f2eea6389ae2286800ef44506fe64736f6c63430006060033",
  "immutableReferences": {},
  "source": "pragma solidity ^0.6.6;\n\ncontract Router {\n    function swapExactTokensForTokens(uint amountIn, uint amountOutMin, address[] calldata path, address to, uint deadline ) external returns (uint[] memory amounts){}\n    function getAmountsOut(uint amountIn, address[] memory path) public view returns (uint[] memory amounts){}\n    function getAmountsIn(uint amountOut, address[] memory path)public view virtual returns (uint[] memory amounts) {}\n}",
  "sourcePath": "/Users/macbookpro4eric/Projects/blockchain/project6_flashswap/contracts/Router.sol",
  "compiler": {
    "name": "solc",
    "version": "0.6.6+commit.6c089d02.Emscripten.clang"
  },
  "schemaVersion": "3.3.4",
  "updatedAt": "2021-04-23T11:38:35.271Z",
  "networkType": "ethereum",
  "devdoc": {
    "methods": {}
  },
  "userdoc": {
    "methods": {}
  }
}