{
  "contractName": "SwapTokens",
  "abi": [
    {
      "anonymous": false,
      "inputs": [
        {
          "indexed": false,
          "internalType": "uint256",
          "name": "timestamp",
          "type": "uint256"
        },
        {
          "indexed": false,
          "internalType": "uint256",
          "name": "amountIn",
          "type": "uint256"
        },
        {
          "indexed": false,
          "internalType": "uint256",
          "name": "amountOut",
          "type": "uint256"
        },
        {
          "indexed": false,
          "internalType": "address[]",
          "name": "path",
          "type": "address[]"
        },
        {
          "indexed": false,
          "internalType": "uint256",
          "name": "allowance",
          "type": "uint256"
        },
        {
          "indexed": false,
          "internalType": "address",
          "name": "sender",
          "type": "address"
        }
      ],
      "name": "test",
      "type": "event"
    },
    {
      "inputs": [],
      "name": "uniRouter",
      "outputs": [
        {
          "internalType": "contract IUniswapV2Router02",
          "name": "",
          "type": "address"
        }
      ],
      "stateMutability": "view",
      "type": "function",
      "constant": true
    },
    {
      "inputs": [
        {
          "internalType": "address",
          "name": "token1",
          "type": "address"
        },
        {
          "internalType": "address",
          "name": "token2",
          "type": "address"
        }
      ],
      "name": "swapper",
      "outputs": [],
      "stateMutability": "nonpayable",
      "type": "function"
    }
  ],
  "bytecode": "0x6080604052600080546001600160a01b031916737a250d5630b4cf539739df2c5dacb4c659f2488d17905534801561003657600080fd5b5061062a806100466000396000f3fe608060405234801561001057600080fd5b50600436106100365760003560e01c8063a0e47bf61461003b578063be7bf3461461005f575b600080fd5b61004361008f565b604080516001600160a01b039092168252519081900360200190f35b61008d6004803603604081101561007557600080fd5b506001600160a01b038135811691602001351661009e565b005b6000546001600160a01b031681565b604080516002808252606080830184529260208301908036833701905050905082816000815181106100cc57fe5b60200260200101906001600160a01b031690816001600160a01b03168152505081816001815181106100fa57fe5b6001600160a01b0392831660209182029290920181019190915260008054604080516307c0329d60e21b8152670de0b6b3a76400006004820181815260248301938452885160448401528851919795969490951694631f00ca749488948a94929390926064019185810191028083838c5b8381101561018357818101518382015260200161016b565b50505050905001935050505060006040518083038186803b1580156101a757600080fd5b505afa1580156101bb573d6000803e3d6000fd5b505050506040513d6000823e601f3d908101601f1916820160405260208110156101e457600080fd5b810190808051604051939291908464010000000082111561020457600080fd5b90830190602082018581111561021957600080fd5b825186602082028301116401000000008211171561023657600080fd5b82525081516020918201928201910280838360005b8381101561026357818101518382015260200161024b565b5050505090500160405250505060008151811061027c57fe5b60200260200101519050846001600160a01b031663095ea7b36000809054906101000a90046001600160a01b0316836040518363ffffffff1660e01b815260040180836001600160a01b03166001600160a01b0316815260200182815260200192505050602060405180830381600087803b1580156102fa57600080fd5b505af115801561030e573d6000803e3d6000fd5b505050506040513d602081101561032457600080fd5b50506000805460408051636eb1769f60e11b81523060048201526001600160a01b03928316602482015290519188169163dd62ed3e91604480820192602092909190829003018186803b15801561037a57600080fd5b505afa15801561038e573d6000803e3d6000fd5b505050506040513d60208110156103a457600080fd5b505160408051605a42018082526020828101879052928201879052608082018490523360a0830181905260c0606084018181528a519185019190915289519596507f2ea310b5745e942416eb1b035680f58e1496b7eb811ee7bdaed906eb812d23fb95929488948a948c948a949093909160e0840191878101910280838360005b8381101561043d578181015183820152602001610425565b5050505090500197505050505050505060405180910390a16000809054906101000a90046001600160a01b03166001600160a01b03166338ed173983858733426078016040518663ffffffff1660e01b81526004018086815260200185815260200180602001846001600160a01b03166001600160a01b03168152602001838152602001828103825285818151815260200191508051906020019060200280838360005b838110156104f95781810151838201526020016104e1565b505050509050019650505050505050600060405180830381600087803b15801561052257600080fd5b505af1158015610536573d6000803e3d6000fd5b505050506040513d6000823e601f3d908101601f19168201604052602081101561055f57600080fd5b810190808051604051939291908464010000000082111561057f57600080fd5b90830190602082018581111561059457600080fd5b82518660208202830111640100000000821117156105b157600080fd5b82525081516020918201928201910280838360005b838110156105de5781810151838201526020016105c6565b505050509050016040525050505050505050505056fea264697066735822122037e6b992dca3296c65a2a8102adda32d5993ca28c09850b286eb1a55123a3c1864736f6c63430006060033",
  "immutableReferences": {},
  "source": "pragma solidity ^0.6.6;\n\nimport \"@uniswap/v2-periphery/contracts/interfaces/IUniswapV2Router02.sol\";\nimport \"@uniswap/v2-core/contracts/interfaces/IERC20.sol\";\n\ncontract SwapTokens {\n    \n    IUniswapV2Router02 public uniRouter = IUniswapV2Router02(0x7a250d5630B4cF539739dF2C5dAcb4c659F2488D);\n    \n    event test (uint timestamp, uint amountIn, uint amountOut, address[] path, uint allowance, address sender);\n    \n    function swapper(address token1, address token2) public  {\n        address[] memory path = new address[](2);\n        path[0] = token1;\n        path[1] = token2;\n        uint amountOut = 1 ether;\n        uint amountIn = uniRouter.getAmountsIn(\n            amountOut,\n            path\n        )[0];\n                \n        IERC20(token1).approve(address(uniRouter), amountIn);\n        \n        uint allowed = IERC20(token1).allowance(address(this), address(uniRouter));        \n        \n        emit test(now+90, amountIn, amountOut, path, allowed, msg.sender);\n\n        uniRouter.swapExactTokensForTokens(\n            amountIn, \n            amountOut,\n            path, \n            msg.sender, \n            now + 120\n        );\n    }\n}",
  "sourcePath": "/Users/macbookpro4eric/Projects/blockchain/project6_flashswap/contracts/SwapTokens.sol",
  "compiler": {
    "name": "solc",
    "version": "0.6.6+commit.6c089d02.Emscripten.clang"
  },
  "schemaVersion": "3.3.4",
  "updatedAt": "2021-04-23T11:38:35.273Z",
  "networkType": "ethereum",
  "devdoc": {
    "methods": {}
  },
  "userdoc": {
    "methods": {}
  }
}