{
  "contractName": "Weth",
  "abi": [
    {
      "inputs": [],
      "name": "deposit",
      "outputs": [],
      "stateMutability": "payable",
      "type": "function",
      "payable": true
    },
    {
      "inputs": [
        {
          "internalType": "address",
          "name": "spender",
          "type": "address"
        },
        {
          "internalType": "uint256",
          "name": "amount",
          "type": "uint256"
        }
      ],
      "name": "approve",
      "outputs": [],
      "stateMutability": "nonpayable",
      "type": "function"
    },
    {
      "inputs": [
        {
          "internalType": "address",
          "name": "owner",
          "type": "address"
        },
        {
          "internalType": "address",
          "name": "spender",
          "type": "address"
        }
      ],
      "name": "allowance",
      "outputs": [
        {
          "internalType": "uint256",
          "name": "",
          "type": "uint256"
        }
      ],
      "stateMutability": "view",
      "type": "function",
      "constant": true
    },
    {
      "inputs": [
        {
          "internalType": "address",
          "name": "owner",
          "type": "address"
        }
      ],
      "name": "balanceOf",
      "outputs": [
        {
          "internalType": "uint256",
          "name": "",
          "type": "uint256"
        }
      ],
      "stateMutability": "view",
      "type": "function",
      "constant": true
    },
    {
      "inputs": [
        {
          "internalType": "address",
          "name": "recipient",
          "type": "address"
        },
        {
          "internalType": "uint256",
          "name": "amount",
          "type": "uint256"
        }
      ],
      "name": "transfer",
      "outputs": [
        {
          "internalType": "bool",
          "name": "",
          "type": "bool"
        }
      ],
      "stateMutability": "nonpayable",
      "type": "function"
    }
  ],
  "bytecode": "0x608060405234801561001057600080fd5b506101a9806100206000396000f3fe60806040526004361061004a5760003560e01c8063095ea7b31461004f57806370a082311461008a578063a9059cbb146100cf578063d0e30db01461011c578063dd62ed3e14610124575b600080fd5b34801561005b57600080fd5b506100886004803603604081101561007257600080fd5b506001600160a01b03813516906020013561015f565b005b34801561009657600080fd5b506100bd600480360360208110156100ad57600080fd5b50356001600160a01b0316610163565b60408051918252519081900360200190f35b3480156100db57600080fd5b50610108600480360360408110156100f257600080fd5b506001600160a01b038135169060200135610169565b604080519115158252519081900360200190f35b610088610171565b34801561013057600080fd5b506100bd6004803603604081101561014757600080fd5b506001600160a01b0381358116916020013516610169565b5050565b50600090565b600092915050565b56fea2646970667358221220da216411bc30da5d45a6e3733046fad5d716e1bf7c18d14fd245b832541309c664736f6c63430006060033",
  "immutableReferences": {},
  "source": "pragma solidity ^0.6.6;\n\ncontract Weth {\n    function deposit() public payable {}\n    function approve(address spender, uint amount) external {}\n    function allowance(address owner, address spender) external view returns(uint) {}\n    function balanceOf(address owner) external view returns(uint) {}\n    function transfer(address recipient, uint256 amount) external returns (bool){}\n}",
  "sourcePath": "/Users/macbookpro4eric/Projects/blockchain/project6_flashswap/contracts/Weth.sol",
  "compiler": {
    "name": "solc",
    "version": "0.6.6+commit.6c089d02.Emscripten.clang"
  },
  "schemaVersion": "3.3.4",
  "updatedAt": "2021-04-26T16:23:10.014Z",
  "networkType": "ethereum",
  "devdoc": {
    "methods": {}
  },
  "userdoc": {
    "methods": {}
  }
}